:03000000020040BB
:03000300020049AF
:10004000856081D288D2AFD2A8C2AFC0D0C0E0D282
:10005000AF30900F309123309239C2AFD0E0D0D082
:10006000D2AF3278FD7400F22090EF0470F914F2F0
:100070002090E770F980F002005A78FE7400F212C6
:1000800000AF2091D574FFF21200AF2091CC80EC2C
:1000900002005A78FE79007400900000E91200AA6C
:1000A000F22092B60980F502005A9000B893227FA0
:1000B000197E0ADEFEDFFA22808386898C90939671
:1000C000999C9FA2A5A8ABAEB1B3B6B9BCBFC1C441
:1000D000C7C9CCCED1D3D5D8DADCDEE0E2E4E6E89D
:1000E000EAEBEDEFF0F1F3F4F5F6F8F9FAFAFBFCD0
:1000F000FDFDFEFEFEFFFFFFFFFFFFFFFEFEFEFD1C
:10010000FDFCFBFAFAF9F8F6F5F4F3F1F0EFEDEB9C
:10011000EAE8E6E4E2E0DEDCDAD8D5D3D1CECCC939
:10012000C7C4C1BFBCB9B6B3B1AEABA8A5A29F9CB2
:10013000999693908C898683807D7A7774706D6AA6
:100140006764615E5B5855524F4D4A4744413F3C9E
:10015000393734322F2D2B28262422201E1C1A1822
:1001600016151311100F0D0C0B0A080706060504CF
:100170000303020202010100000001010202020366
:10018000030405060607080A0B0C0D0F10111315C2
:1001900016181A1C1E20222426282B2D2F32343705
:1001A000393C3F4144474A4D4F5255585B5E61646C
:0801B000676A6D7074777A7DB7
:00000001FF
